:100000000C94A1000C94C9000C94C9000C94C90074
:100010000C94C9000C94C9000C94C9000C94C9003C
:100020000C94C9000C94C9000C94C9000C94C9002C
:100030000C94C9000C94C9000C94C9000C94C9001C
:100040000C9410040C94C9000C94E3030C94BD03AD
:100050000C94C9000C94C9000C94C9000C94C900FC
:100060000C94C9000C94C9000A0030007C003000D8
:100070007C00300000000000240027002A0000005F
:100080000000250028002B000000000023002600AF
:10009000290004040404040404040202020202020B
:1000A000030303030303010204081020408001023C
:1000B00004081020010204081020000000080002BB
:1000C000010000030407000000000000000073208E
:1000D0005B302D36335D2073657473207468652042
:1000E00072656C6179206F757470757420626974C3
:1000F0006D61736B0A67206765747320746865208F
:100100006C6174657374206F75747075740A6461C2
:10011000746120666F726D61743A20253032587CAC
:10012000253032587C253032585C6E2C20736E2C72
:1001300020696E7075742C206F75747075740A0068
:10014000490611241FBECFEFD8E0DEBFCDBF11E0BE
:10015000A0E0B1E0E4E7FDE002C005900D92A83315
:10016000B107D9F722E0A8E3B1E001C01D92A630A3
:10017000B207E1F710E0C1EAD0E004C02197FE0128
:100180000E949806C03AD107C9F70E9458040C94FF
:10019000B8060C940000CF92DF92EF92FF920F937B
:1001A0001F93CF93DF937C016A0110E000E00C15F0
:1001B0001D0581F0EB01D701ED91FC910190F081DB
:1001C000E02D6991C7010995892B21F00F5F1F4F21
:1001D000BE01EDCFC801DF91CF911F910F91FF902C
:1001E000EF90DF90CF900895FC01538D448D252F23
:1001F00030E0842F90E0821B930B541710F0CF96C1
:10020000089501970895FC01918D828D981761F0F2
:10021000A28DAE0FBF2FB11D5D968C91928D9F5F09
:100220009F73928F90E008958FEF9FEF0895FC01E8
:10023000918D828D981731F0828DE80FF11D858D9B
:1002400090E008958FEF9FEF08952FB7F894809175
:10025000650190916601A0916701B09168012FBF7F
:100260008093710190937201A0937301B093740114
:1002700089E691E00E94170197FF26C02FB7F894F6
:100280008091650190916601A0916701B09168012C
:100290002FBF409171015091720160917301709173
:1002A0007401841B950BA60BB70B40916D01509107
:1002B0006E0160916F017091700184179507A60718
:1002C000B707B0F28FEF9FEF0895FC01818D228D6B
:1002D00090E0805C9F4F821B91098F73992708954E
:1002E00089E691E00E9465019C0181E0232B09F4DD
:1002F00080E0089580E090E0892B29F00E94700151
:1003000081110C9400000895FC01A48DA80FB92F51
:10031000B11DA35ABF4F2C91848D90E001968F732D
:100320009927848FA689B7892C93A089B1898C914C
:1003300080648C93938D848D981306C00288F38912
:10034000E02D80818F7D80830895EF92FF920F933F
:100350001F93CF93DF93EC01F62E81E0888F9B8D66
:100360008C8D981316C0E889F989808185FF11C0AA
:10037000EE89FF896083E889F989808180648083C0
:1003800081E090E0DF91CF911F910F91FF90EF906E
:1003900008950B8D10E00F5F1F4F0F731127E02E94
:1003A0008C8D8E110CC00FB607FCFACFE889F98945
:1003B000808185FFF5CFCE010E948401F1CFEB8DC6
:1003C000EC0FFD2FF11DE35AFF4FF0820B8FEA89EE
:1003D000FB8980818062D3CF0F931F93CF93DF93EC
:1003E0008C01D0E0C0E0F801EC0FFD1F64916623A2
:1003F00041F089E691E00E94A501892B11F0219638
:10040000F2CFCE01DF91CF911F910F910895CF933D
:10041000DF93EC01888D8823B9F0AA89BB89E8892C
:10042000F9898C9185FD03C0808186FD0DC00FB6D2
:1004300007FCF7CF8C9185FFF2CF808185FFEDCF50
:10044000CE010E948401E9CFDF91CF9108958430DD
:1004500099F038F48230C1F0833041F0813081F07E
:1004600008958730A1F08830C1F008958091800010
:100470008F77809380000895809180008F7DF9CFE1
:1004800084B58F7784BD089584B58F7DFBCF80912F
:10049000B0008F778093B00008958091B0008F7D79
:1004A000F9CF1F93CF93DF93162F282F30E0F90158
:1004B000E654FF4F8491F901EA55FF4FD491F901B9
:1004C000EE56FF4FC491CC23A1F081110E94270268
:1004D000EC2FF0E0EE0FFF1FE258FF4FA591B49113
:1004E0008FB7F894EC91111108C0D095DE23DC93FE
:1004F0008FBFDF91CF911F910895DE2BF8CFCF935F
:10050000DF9390E0FC01EA55FF4F24918E569F4FF8
:10051000FC0184918823D1F090E0880F991FFC01A1
:10052000EC58FF4FA591B491FC01E258FF4FC591E3
:10053000D491623071F49FB7F8943C91822F8095EA
:1005400083238C93E8812E2B28839FBFDF91CF914B
:1005500008958FB7F894EC912E2B2C938FBFF6CF84
:10056000BC01009761F0FC0101900020E9F7319790
:10057000AF01481B590B89E691E00C94CB0090E049
:1005800080E008954F925F926F927F928F929F9238
:10059000AF92BF92CF92DF92EF92FF920F931F9391
:1005A000CF93DF93CDB7DEB7A1970FB6F894DEBF38
:1005B0000FBECDBF762E672E582E492E19A242307F
:1005C00008F44AE08E010F5D1F4FC42ED12CF12C90
:1005D000E12C672D762D852D942DA70196010E9483
:1005E0007606872C962CA52CB42C722E632E542EB6
:1005F000452E6A301CF5605DF80162938F018C1402
:100600009D04AE04BF0428F7CF010E94B002A1965A
:100610000FB6F894DEBF0FBECDBFDF91CF911F9113
:100620000F91FF90EF90DF90CF90BF90AF909F9091
:100630008F907F906F905F904F900895695CDCCFB2
:10064000CF92DF92EF92FF920F931F93CF93DF939E
:100650006B017C0180E4C816D104E104F1045CF56F
:10066000D0E0C0E001E010E08C2F885FA8010C2EE4
:1006700002C0440F551F0A94E2F7052E000C660BCA
:10068000770B4C215D216E217F21452B462B472B7B
:1006900081F061E00E9451022196C630D10521F718
:1006A000DF91CF911F910F91FF90EF90DF90CF904E
:1006B000089560E0EFCF82E191E0DF91CF911F914B
:1006C0000F91FF90EF90DF90CF900C94B002CF93FA
:1006D000DF9300D000D0CDB7DEB782E790E00E9474
:1006E000EC0140E160E070E0CB010E94C20280E7D3
:1006F00090E00E94EC0180916101909162019A83E7
:100700008983409720F48EE690E00E94EC01A98155
:10071000BA81CD01B0E0A0E040E1BC01CD010E9472
:10072000C2028CE690E00E94EC01809163019091FE
:1007300064019A838983409720F48AE690E00E94BE
:10074000EC01A981BA81CD01B0E0A0E089839A8350
:10075000AB83BC8340E1BC01CD010E94C20288E6AC
:1007600090E00E94EC0189E691E00F900F900F90CD
:100770000F90DF91CF910C9407021F920F920FB64A
:100780000F9211242F933F934F935F936F937F9317
:100790008F939F93AF93BF93EF93FF9389E691E07D
:1007A0000E948401FF91EF91BF91AF919F918F9132
:1007B0007F916F915F914F913F912F910F900FBE5D
:1007C0000F901F9018952F932FB72F938F939F9370
:1007D000EF93FF93E0917901F0917A018081E091AC
:1007E0007F01F091800182FD19C09081809182018A
:1007F0008F5F8F7320918301821741F0E091820116
:10080000F0E0E759FE4F958F80938201FF91EF91C1
:100810009F918F912F912FBF2F9118958081F6CFA7
:100820001F921FB61F9211242F933F938F939F9374
:10083000AF93BF938091650190916601A09167018C
:10084000B091680130913C0123E0230F2D3750F522
:100850000196A11DB11D20933C01809365019093E9
:100860006601A0936701B09368018091380190916F
:100870003901A0913A01B0913B010196A11DB11D32
:100880008093380190933901A0933A01B0933B01D2
:10089000BF91AF919F918F913F912F911F901FBE5C
:1008A0001F90189526E8230F0296A11DB11DD3CFE6
:1008B00000D000D000D0CDB7DEB7789484B5826088
:1008C00084BD84B5816084BD85B5826085BD85B5F4
:1008D000816085BD80916E00816080936E00109272
:1008E00081008091810082608093810080918100ED
:1008F000816080938100809180008160809380007E
:100900008091B10084608093B1008091B0008160DB
:100910008093B00080917A00846080937A00809107
:100920007A00826080937A0080917A00816080935F
:100930007A0080917A00806880937A001092C100DA
:1009400061E088E00E947F0261E089E00E947F020E
:1009500061E08AE00E947F0261E08BE00E947F02FA
:1009600061E08CE00E947F0261E08DE00E947F02E6
:1009700060E070E0CB010E94200362E087E00E940B
:100980007F0262E086E00E947F0262E085E00E94D2
:100990007F0262E084E00E947F0262E083E00E94C6
:1009A0007F0262E082E00E947F02E0917901F09193
:1009B0007A0182E08083E0917501F09176011082E6
:1009C000E0917701F091780180E1808310928101BC
:1009D000E0917D01F0917E0186E08083E0917B01D2
:1009E000F0917C01808180618083E0917B01F091B6
:1009F0007C01808188608083E0917B01F0917C01A3
:100A0000808180688083E0917B01F0917C0180810E
:100A10008F7D8083412C512C320143948FB7F89401
:100A2000C0906501D0906601E0906701F090680188
:100A30008FBF01E411E0312C22E030E03E832D83B2
:100A40004601570134E1830E911CA11CB11CED81BC
:100A5000FE81E654FF4F8491ED81FE81EA55FF4F00
:100A600044914983ED81FE81EE56FF4F249030E0A2
:100A700020E02220A1F081110E942702E22DF0E067
:100A8000EE0FFF1FE857FF4FA591B491EC915981EC
:100A9000E52391E080E009F490E0292F382FE091E0
:100AA0006101F0916201AF010D8002C0569547953A
:100AB0000A94E2F7417055274217530749F1D801CC
:100AC00018964D915D916D917C911B974C155D052C
:100AD0006E057F05E8F418968D929D92AD92BC92BA
:100AE0001B97D301C2010D8004C0880F991FAA1F54
:100AF000BB1F0A94D2F7232BB9F5AC014095509552
:100B00004E235F2350936201409361013324339459
:100B10002D813E812F5F3F4F3E832D830C5F1F4F02
:100B20002830310509F093CF80913D0190913E012D
:100B3000A0913F01B0914001A7019601281B390BFC
:100B40004A0B5B0BDA01C901883E9340A105B10550
:100B500090F0C0923D01D0923E01E0923F01F092B0
:100B600040010E94670309C08E2B9F2B9093620166
:100B700080936101CBCF3110F4CF89E691E00E94E0
:100B80006501181619060CF077C089E691E00E94FD
:100B900003018736910529F38337910559F0CF97E3
:100BA00061F78EEC90E00E94EC0185E391E00E94F9
:100BB000B002E3CF0E942501FC0197FD59C08D32A0
:100BC000910541F0C0970A9728F089E691E00E94CC
:100BD0000301F0CFC12CD12C76011D82E130F1054B
:100BE000D9F0ED32F10509F440C0CF01C0970A9762
:100BF00098F4AAE0B0E0A70196010E949E066F015A
:100C0000FF0FEE08FF08C60ED71EE81EF91E40E3D0
:100C1000C41AD108E108F10889E691E00E940301B5
:100C20000E942501FC01C0970A97C0F2E130F1054E
:100C3000A9F28D81882341F0F094E094D094C0947F
:100C4000C11CD11CE11CF11CD0926401C092630153
:100C5000A70196014427552729833A834B835C8358
:100C6000CA01B9010E94200388CF51E05D83D4CF2F
:100C7000C12CD12C7601E8CF40E050E0452B09F49F
:100C8000CDCE0E947001882309F4C8CE0E940000D6
:100C9000C5CEE9E6F1E01382128288EE93E0A0E08F
:100CA000B0E084839583A683B78384E091E0918349
:100CB000808385EC90E09587848784EC90E097872B
:100CC000868780EC90E0918B808B81EC90E0938B19
:100CD000828B82EC90E0958B848B86EC90E0978BF6
:100CE000868B118E128E138E148E0895A1E21A2E09
:100CF000AA1BBB1BFD010DC0AA1FBB1FEE1FFF1FC0
:100D0000A217B307E407F50720F0A21BB30BE40B0F
:100D1000F50B661F771F881F991F1A9469F7609556
:100D20007095809590959B01AC01BD01CF01089510
:100D3000EE0FFF1F0590F491E02D09940E94A90683
:100D4000A59F900DB49F900DA49F800D911D11241F
:100D50000895A29FB001B39FC001A39F700D811D94
:100D60001124911DB29F700D811D1124911D0895B4
:040D7000F894FFCF25
:100D740000000000A501CB00F40007026501030197
:100D84001701496E76616C69642072616E67652E25
:100D94002020457870656374696E673A205B302D56
:080DA40036335D0A000D0A0060
:00000001FF
